{
  "contractName": "FitoContract",
  "abi": [
    {
      "constant": true,
      "inputs": [
        {
          "name": "",
          "type": "uint256"
        }
      ],
      "name": "tradingDatas",
      "outputs": [
        {
          "name": "tradingShares",
          "type": "uint256"
        },
        {
          "name": "tradingPrice",
          "type": "uint256"
        },
        {
          "name": "timestamp",
          "type": "uint256"
        },
        {
          "name": "sellerAddr",
          "type": "address"
        },
        {
          "name": "buyerAddr",
          "type": "address"
        },
        {
          "name": "isTradingComplete",
          "type": "bool"
        }
      ],
      "payable": false,
      "stateMutability": "view",
      "type": "function"
    },
    {
      "anonymous": false,
      "inputs": [
        {
          "indexed": false,
          "name": "value",
          "type": "uint256"
        },
        {
          "indexed": false,
          "name": "balance",
          "type": "uint256"
        }
      ],
      "name": "Sended",
      "type": "event"
    },
    {
      "constant": false,
      "inputs": [
        {
          "name": "_corpAddr",
          "type": "address"
        }
      ],
      "name": "initShares",
      "outputs": [],
      "payable": false,
      "stateMutability": "nonpayable",
      "type": "function"
    },
    {
      "constant": false,
      "inputs": [],
      "name": "transfer",
      "outputs": [],
      "payable": true,
      "stateMutability": "payable",
      "type": "function"
    },
    {
      "constant": false,
      "inputs": [
        {
          "name": "_sellerAddr",
          "type": "address"
        },
        {
          "name": "_tradingShares",
          "type": "uint256"
        }
      ],
      "name": "addTradingData",
      "outputs": [
        {
          "name": "",
          "type": "uint256"
        }
      ],
      "payable": true,
      "stateMutability": "payable",
      "type": "function"
    },
    {
      "constant": true,
      "inputs": [],
      "name": "getLengthOftradingDatas",
      "outputs": [
        {
          "name": "",
          "type": "uint256"
        }
      ],
      "payable": false,
      "stateMutability": "view",
      "type": "function"
    },
    {
      "constant": true,
      "inputs": [
        {
          "name": "_ownerAddr",
          "type": "address"
        }
      ],
      "name": "getOwnedShares",
      "outputs": [
        {
          "name": "",
          "type": "uint256"
        }
      ],
      "payable": false,
      "stateMutability": "view",
      "type": "function"
    },
    {
      "constant": true,
      "inputs": [],
      "name": "getUnissuedShareOfCompany",
      "outputs": [
        {
          "name": "",
          "type": "uint256"
        }
      ],
      "payable": false,
      "stateMutability": "view",
      "type": "function"
    }
  ],
  "bytecode": "0x6080604052620f424060005534801561001757600080fd5b5061083a806100276000396000f300608060405260043610610083576000357c0100000000000000000000000000000000000000000000000000000000900463ffffffff1680631290a8381461008857806323420cdc146100dc578063433c381e14610107578063610495ef1461015e5780638a4068dd146101a15780638fe00b21146101ab578063c3e53c51146101d6575b600080fd5b6100c6600480360381019080803573ffffffffffffffffffffffffffffffffffffffff16906020019092919080359060200190929190505050610296565b6040518082815260200191505060405180910390f35b3480156100e857600080fd5b506100f1610557565b6040518082815260200191505060405180910390f35b34801561011357600080fd5b50610148600480360381019080803573ffffffffffffffffffffffffffffffffffffffff169060200190929190505050610564565b6040518082815260200191505060405180910390f35b34801561016a57600080fd5b5061019f600480360381019080803573ffffffffffffffffffffffffffffffffffffffff1690602001909291905050506105ad565b005b6101a961060f565b005b3480156101b757600080fd5b506101c061067a565b6040518082815260200191505060405180910390f35b3480156101e257600080fd5b5061020160048036038101908080359060200190929190505050610683565b604051808781526020018681526020018581526020018473ffffffffffffffffffffffffffffffffffffffff1673ffffffffffffffffffffffffffffffffffffffff1681526020018373ffffffffffffffffffffffffffffffffffffffff1673ffffffffffffffffffffffffffffffffffffffff16815260200182151515158152602001965050505050505060405180910390f35b60006102a06107a9565b600083600360008773ffffffffffffffffffffffffffffffffffffffff1673ffffffffffffffffffffffffffffffffffffffff16815260200190815260200160002054101580156102f2575060008414155b15156102fd57600080fd5b60c0604051908101604052808581526020013481526020014281526020018673ffffffffffffffffffffffffffffffffffffffff1681526020013373ffffffffffffffffffffffffffffffffffffffff1681526020016000151581525091506004829080600181540180825580915050906001820390600052602060002090600502016000909192909190915060008201518160000155602082015181600101556040820151816002015560608201518160030160006101000a81548173ffffffffffffffffffffffffffffffffffffffff021916908373ffffffffffffffffffffffffffffffffffffffff16021790555060808201518160040160006101000a81548173ffffffffffffffffffffffffffffffffffffffff021916908373ffffffffffffffffffffffffffffffffffffffff16021790555060a08201518160040160146101000a81548160ff021916908315150217905550505090506104638561071b565b61046b61075f565b83600360008773ffffffffffffffffffffffffffffffffffffffff1673ffffffffffffffffffffffffffffffffffffffff1681526020019081526020016000206000828254039250508190555083600360003373ffffffffffffffffffffffffffffffffffffffff1673ffffffffffffffffffffffffffffffffffffffff1681526020019081526020016000206000828254019250508190555061050d61060f565b600160046001830381548110151561052157fe5b906000526020600020906005020160040160146101000a81548160ff021916908315150217905550600181039250505092915050565b6000600480549050905090565b6000600360008373ffffffffffffffffffffffffffffffffffffffff1673ffffffffffffffffffffffffffffffffffffffff168152602001908152602001600020549050919050565b6000819050620186a0600360008373ffffffffffffffffffffffffffffffffffffffff1673ffffffffffffffffffffffffffffffffffffffff16815260200190815260200160002081905550620186a060008082825403925050819055505050565b600260009054906101000a900473ffffffffffffffffffffffffffffffffffffffff1673ffffffffffffffffffffffffffffffffffffffff166108fc349081150290604051600060405180830381858888f19350505050158015610677573d6000803e3d6000fd5b50565b60008054905090565b60048181548110151561069257fe5b90600052602060002090600502016000915090508060000154908060010154908060020154908060030160009054906101000a900473ffffffffffffffffffffffffffffffffffffffff16908060040160009054906101000a900473ffffffffffffffffffffffffffffffffffffffff16908060040160149054906101000a900460ff16905086565b80600260006101000a81548173ffffffffffffffffffffffffffffffffffffffff021916908373ffffffffffffffffffffffffffffffffffffffff16021790555050565b346001819055507f8af68a55d4ee2bb2549f41a62e9a9ff1288d3a581c8960e3ecf22e9fa4b4691634600154604051808381526020018281526020019250505060405180910390a1565b60c060405190810160405280600081526020016000815260200160008152602001600073ffffffffffffffffffffffffffffffffffffffff168152602001600073ffffffffffffffffffffffffffffffffffffffff16815260200160001515815250905600a165627a7a72305820acc52dba8fea27b373f04ae01aa7a6f9763b0643ac0917bce348d07265b77e250029",
  "source": "pragma solidity ^0.4.24;\n\ncontract FitoContract {\n\n    uint unissuedShareOfCompany = 1000000;  //총 발행가능 주식수\n    uint balance;                   //ETH transfer 전송할 이더 수량 저장을 위한 임시 변수\n    address ethTaker;               //Eth transfer 수령자 저장을 위한 임시 변수\n\n    mapping (address => uint) ownedShares;\n\n    struct tradingData {\n        uint tradingShares;         //거래할 주식수\n        uint tradingPrice;          //거래할 총액(ETH)\n        uint timestamp;             //거래시간\n        address sellerAddr;         //주식 양도자\n        address buyerAddr;          //주식 양수자\n        bool isTradingComplete;     //거래 및 ETH 송금 완료\n    }\n\n    tradingData[] public tradingDatas;\n\n    //최초 회사 유통발행주식의 매개자 설정 및 초기화\n    function initShares(address _corpAddr) public {\n        address corpAddr = _corpAddr;\n        ownedShares[corpAddr] = 100000;  //총 발행가능 주식수 100% 발행 가정\n        unissuedShareOfCompany -= 100000;\n    }\n\n    // -----------------------------------------------------------\n    // EOA-CA-EOA ETH transfer를 위한 function\n    // -----------------------------------------------------------\n\n    //로깅을 위한 이벤트\n    event Sended (\n        uint256 value,\n        uint256 balance\n    );\n\n    //Eth 수령자 저장\n    function setEthTaker(address _ethTaker) private {\n        ethTaker = _ethTaker;\n    }\n\n    //호출자가 보낼 Eth 수량을 임시 저장\n    function sending() private {\n        balance = msg.value;\n        emit Sended(msg.value, balance);\n    }\n\n    //set함수를 통해 저장한 주소에 이더를 전송\n    function transfer() payable public {\n        ethTaker.transfer(msg.value);\n    }\n    // -----------------------------------------------------------\n\n    //양수자가 거래를 요청하고 이더를 전송하는 함수\n    //차후 요청-승인 구조로 분화해야 함.\n    function addTradingData(address _sellerAddr, uint _tradingShares) payable public returns(uint) {\n        require(ownedShares[_sellerAddr] >= _tradingShares && _tradingShares != 0);\n        tradingData memory newTradingData = tradingData(_tradingShares, msg.value, now, _sellerAddr, msg.sender, false);\n        uint tradingIdx = tradingDatas.push(newTradingData);\n        setEthTaker(_sellerAddr);\n        sending();\n        ownedShares[_sellerAddr] -= _tradingShares;\n        ownedShares[msg.sender] += _tradingShares;\n        transfer();\n        tradingDatas[tradingIdx-1].isTradingComplete = true;\n        return tradingIdx-1;\n    }\n\n    // 총 거래 내역 수 리턴\n    function getLengthOftradingDatas() public view returns (uint) {\n        return tradingDatas.length;\n    }\n\n    // 거래 내역 리턴\n    // function getProductStruct(uint _idx) public view returns (tradingData) {\n    //     return tradingDatas[_idx];\n    //     작성중\n    // }\n\n    //주주가 가진 주식수 리턴\n    function getOwnedShares(address _ownerAddr) public view returns (uint){\n        return ownedShares[_ownerAddr];\n    }\n\n    //회사 미발행 주식수\n    function getUnissuedShareOfCompany() public view returns(uint) {\n        return unissuedShareOfCompany;\n    }\n\n    //회사 유통 주식수\n    // function getIssuedShares() public view returns(uint) {\n    //     // 작성중\n    // }\n\n    //CA에 Eth를 transfer하기 위한 함수(백업) \n    // function sendEth() public payable {}\n}\n",
  "sourcePath": "/Users/hyun/dev/Fito/fito.ga/contracts/FitoContract.sol",
  "compiler": {
    "name": "solc",
    "version": "0.4.24+commit.e67f0147.Emscripten.clang"
  },
  "schemaVersion": "2.0.1",
  "updatedAt": "2018-11-14T02:20:54.024Z"
}