{
  "contractName": "FitoContract",
  "abi": [
    {
      "constant": true,
      "inputs": [
        {
          "name": "",
          "type": "uint256"
        }
      ],
      "name": "tradingDatas",
      "outputs": [
        {
          "name": "tradingShares",
          "type": "uint256"
        },
        {
          "name": "tradingPrice",
          "type": "uint256"
        },
        {
          "name": "timestamp",
          "type": "uint256"
        },
        {
          "name": "sellerAddr",
          "type": "address"
        },
        {
          "name": "buyerAddr",
          "type": "address"
        },
        {
          "name": "isTradingComplete",
          "type": "bool"
        }
      ],
      "payable": false,
      "stateMutability": "view",
      "type": "function"
    },
    {
      "constant": true,
      "inputs": [
        {
          "name": "",
          "type": "uint256"
        }
      ],
      "name": "shareOwnerLists",
      "outputs": [
        {
          "name": "ownerAddr",
          "type": "address"
        }
      ],
      "payable": false,
      "stateMutability": "view",
      "type": "function"
    },
    {
      "anonymous": false,
      "inputs": [
        {
          "indexed": false,
          "name": "value",
          "type": "uint256"
        },
        {
          "indexed": false,
          "name": "balance",
          "type": "uint256"
        }
      ],
      "name": "Sended",
      "type": "event"
    },
    {
      "anonymous": false,
      "inputs": [
        {
          "indexed": false,
          "name": "tradingShares",
          "type": "uint256"
        },
        {
          "indexed": false,
          "name": "tradingPrice",
          "type": "uint256"
        },
        {
          "indexed": false,
          "name": "timestamp",
          "type": "uint256"
        },
        {
          "indexed": false,
          "name": "sellerAddr",
          "type": "address"
        },
        {
          "indexed": false,
          "name": "buyerAddr",
          "type": "address"
        },
        {
          "indexed": false,
          "name": "isTradingComplete",
          "type": "bool"
        }
      ],
      "name": "eventTradingDataAdded",
      "type": "event"
    },
    {
      "constant": false,
      "inputs": [
        {
          "name": "_userAddr",
          "type": "address"
        }
      ],
      "name": "setCorporateAddr",
      "outputs": [],
      "payable": false,
      "stateMutability": "nonpayable",
      "type": "function"
    },
    {
      "constant": false,
      "inputs": [
        {
          "name": "_issuingShares",
          "type": "uint256"
        },
        {
          "name": "_userAddr",
          "type": "address"
        }
      ],
      "name": "initSharesOfCorporate",
      "outputs": [],
      "payable": false,
      "stateMutability": "nonpayable",
      "type": "function"
    },
    {
      "constant": false,
      "inputs": [],
      "name": "sending",
      "outputs": [],
      "payable": true,
      "stateMutability": "payable",
      "type": "function"
    },
    {
      "constant": false,
      "inputs": [],
      "name": "transfer",
      "outputs": [],
      "payable": true,
      "stateMutability": "payable",
      "type": "function"
    },
    {
      "constant": false,
      "inputs": [
        {
          "name": "_shareholderAddr",
          "type": "address"
        }
      ],
      "name": "initShareholderAddr",
      "outputs": [
        {
          "name": "_ownerIdx",
          "type": "uint256"
        }
      ],
      "payable": false,
      "stateMutability": "nonpayable",
      "type": "function"
    },
    {
      "constant": false,
      "inputs": [
        {
          "name": "_sellerAddr",
          "type": "address"
        },
        {
          "name": "_tradingShares",
          "type": "uint256"
        }
      ],
      "name": "addTradingData",
      "outputs": [],
      "payable": true,
      "stateMutability": "payable",
      "type": "function"
    },
    {
      "constant": true,
      "inputs": [],
      "name": "getLengthOfshareOwnerLists",
      "outputs": [
        {
          "name": "",
          "type": "uint256"
        }
      ],
      "payable": false,
      "stateMutability": "view",
      "type": "function"
    },
    {
      "constant": true,
      "inputs": [
        {
          "name": "_ownerIndex",
          "type": "uint256"
        }
      ],
      "name": "getAddrOfshareOwner",
      "outputs": [
        {
          "name": "",
          "type": "address"
        }
      ],
      "payable": false,
      "stateMutability": "view",
      "type": "function"
    },
    {
      "constant": true,
      "inputs": [
        {
          "name": "_ownerIndex",
          "type": "uint256"
        }
      ],
      "name": "getOwnedShares",
      "outputs": [
        {
          "name": "",
          "type": "uint256"
        }
      ],
      "payable": false,
      "stateMutability": "view",
      "type": "function"
    },
    {
      "constant": true,
      "inputs": [],
      "name": "getLengthOftradingDatas",
      "outputs": [
        {
          "name": "",
          "type": "uint256"
        }
      ],
      "payable": false,
      "stateMutability": "view",
      "type": "function"
    },
    {
      "constant": true,
      "inputs": [
        {
          "name": "_tradingIdx",
          "type": "uint256"
        }
      ],
      "name": "getAspecificTradingData",
      "outputs": [
        {
          "name": "",
          "type": "uint256"
        },
        {
          "name": "",
          "type": "uint256"
        },
        {
          "name": "",
          "type": "uint256"
        },
        {
          "name": "",
          "type": "address"
        },
        {
          "name": "",
          "type": "address"
        },
        {
          "name": "",
          "type": "bool"
        }
      ],
      "payable": false,
      "stateMutability": "view",
      "type": "function"
    },
    {
      "constant": true,
      "inputs": [],
      "name": "getCorporateInfo",
      "outputs": [
        {
          "name": "",
          "type": "bool"
        },
        {
          "name": "",
          "type": "uint256"
        },
        {
          "name": "",
          "type": "uint256"
        },
        {
          "name": "",
          "type": "address"
        }
      ],
      "payable": false,
      "stateMutability": "view",
      "type": "function"
    },
    {
      "constant": true,
      "inputs": [],
      "name": "getTester",
      "outputs": [
        {
          "name": "",
          "type": "uint256[]"
        }
      ],
      "payable": false,
      "stateMutability": "view",
      "type": "function"
    }
  ],
  "bytecode": "0x608060405260008060006101000a81548160ff021916908315150217905550620f424060025534801561003157600080fd5b50611192806100416000396000f3006080604052600436106100db576000357c0100000000000000000000000000000000000000000000000000000000900463ffffffff16806308e6eabc146100e05780631290a838146100ea57806316931f1f1461012a57806323420cdc14610197578063266d06fb146101c2578063287b039a146102035780633dac127e146102c35780633f53f307146103065780636dd3692f146103315780638413739f1461039d5780638a4068dd146103f457806391fade63146103fe578063c23082821461046e578063c3e53c51146104bb578063e84dff6d1461057b575b600080fd5b6100e86105e8565b005b610128600480360381019080803573ffffffffffffffffffffffffffffffffffffffff16906020019092919080359060200190929190505050610632565b005b34801561013657600080fd5b5061015560048036038101908080359060200190929190505050610a55565b604051808273ffffffffffffffffffffffffffffffffffffffff1673ffffffffffffffffffffffffffffffffffffffff16815260200191505060405180910390f35b3480156101a357600080fd5b506101ac610a9b565b6040518082815260200191505060405180910390f35b3480156101ce57600080fd5b506101ed60048036038101908080359060200190929190505050610aa8565b6040518082815260200191505060405180910390f35b34801561020f57600080fd5b5061022e60048036038101908080359060200190929190505050610ac5565b604051808781526020018681526020018581526020018473ffffffffffffffffffffffffffffffffffffffff1673ffffffffffffffffffffffffffffffffffffffff1681526020018373ffffffffffffffffffffffffffffffffffffffff1673ffffffffffffffffffffffffffffffffffffffff16815260200182151515158152602001965050505050505060405180910390f35b3480156102cf57600080fd5b50610304600480360381019080803573ffffffffffffffffffffffffffffffffffffffff169060200190929190505050610bf6565b005b34801561031257600080fd5b5061031b610c7a565b6040518082815260200191505060405180910390f35b34801561033d57600080fd5b50610346610c87565b6040518080602001828103825283818151815260200191508051906020019060200280838360005b8381101561038957808201518184015260208101905061036e565b505050509050019250505060405180910390f35b3480156103a957600080fd5b506103de600480360381019080803573ffffffffffffffffffffffffffffffffffffffff169060200190929190505050610cdf565b6040518082815260200191505060405180910390f35b6103fc610e55565b005b34801561040a57600080fd5b50610413610ec0565b60405180851515151581526020018481526020018381526020018273ffffffffffffffffffffffffffffffffffffffff1673ffffffffffffffffffffffffffffffffffffffff16815260200194505050505060405180910390f35b34801561047a57600080fd5b506104b960048036038101908080359060200190929190803573ffffffffffffffffffffffffffffffffffffffff169060200190929190505050610f0c565b005b3480156104c757600080fd5b506104e660048036038101908080359060200190929190505050610fb2565b604051808781526020018681526020018581526020018473ffffffffffffffffffffffffffffffffffffffff1673ffffffffffffffffffffffffffffffffffffffff1681526020018373ffffffffffffffffffffffffffffffffffffffff1673ffffffffffffffffffffffffffffffffffffffff16815260200182151515158152602001965050505050505060405180910390f35b34801561058757600080fd5b506105a66004803603810190808035906020019092919050505061104a565b604051808273ffffffffffffffffffffffffffffffffffffffff1673ffffffffffffffffffffffffffffffffffffffff16815260200191505060405180910390f35b346004819055507f8af68a55d4ee2bb2549f41a62e9a9ff1288d3a581c8960e3ecf22e9fa4b4691634600454604051808381526020018281526020019250505060405180910390a1565b60008061063d6110d7565b600061064886610cdf565b935061065333610cdf565b925084600760008681526020019081526020016000205410158015610679575060008514155b15610a4d5760c0604051908101604052808681526020013481526020014281526020018773ffffffffffffffffffffffffffffffffffffffff1681526020013373ffffffffffffffffffffffffffffffffffffffff1681526020016000151581525091506008829080600181540180825580915050906001820390600052602060002090600502016000909192909190915060008201518160000155602082015181600101556040820151816002015560608201518160030160006101000a81548173ffffffffffffffffffffffffffffffffffffffff021916908373ffffffffffffffffffffffffffffffffffffffff16021790555060808201518160040160006101000a81548173ffffffffffffffffffffffffffffffffffffffff021916908373ffffffffffffffffffffffffffffffffffffffff16021790555060a08201518160040160146101000a81548160ff021916908315150217905550505090506107e486611093565b6107ec6105e8565b846007600086815260200190815260200160002060008282540392505081905550846007600085815260200190815260200160002060008282540192505081905550610836610e55565b600160086001830381548110151561084a57fe5b906000526020600020906005020160040160146101000a81548160ff0219169083151502179055507fb118fa0e58d615f594ffb00e135c05d99c534128131cd77dadccfbaea10862366008600183038154811015156108a557fe5b9060005260206000209060050201600001546008600184038154811015156108c957fe5b9060005260206000209060050201600101546008600185038154811015156108ed57fe5b90600052602060002090600502016002015460086001860381548110151561091157fe5b906000526020600020906005020160030160009054906101000a900473ffffffffffffffffffffffffffffffffffffffff1660086001870381548110151561095557fe5b906000526020600020906005020160040160009054906101000a900473ffffffffffffffffffffffffffffffffffffffff1660086001880381548110151561099957fe5b906000526020600020906005020160040160149054906101000a900460ff16604051808781526020018681526020018581526020018473ffffffffffffffffffffffffffffffffffffffff1673ffffffffffffffffffffffffffffffffffffffff1681526020018373ffffffffffffffffffffffffffffffffffffffff1673ffffffffffffffffffffffffffffffffffffffff16815260200182151515158152602001965050505050505060405180910390a15b505050505050565b6000600982815481101515610a6657fe5b9060005260206000200160000160009054906101000a900473ffffffffffffffffffffffffffffffffffffffff169050919050565b6000600880549050905090565b600060076000838152602001908152602001600020549050919050565b600080600080600080600887815481101515610add57fe5b906000526020600020906005020160000154600888815481101515610afe57fe5b906000526020600020906005020160010154600889815481101515610b1f57fe5b90600052602060002090600502016002015460088a815481101515610b4057fe5b906000526020600020906005020160030160009054906101000a900473ffffffffffffffffffffffffffffffffffffffff1660088b815481101515610b8157fe5b906000526020600020906005020160040160009054906101000a900473ffffffffffffffffffffffffffffffffffffffff1660088c815481101515610bc257fe5b906000526020600020906005020160040160149054906101000a900460ff1695509550955095509550955091939550919395565b600015156000809054906101000a900460ff1615151415610c7757610c1a81610cdf565b5080600560006101000a81548173ffffffffffffffffffffffffffffffffffffffff021916908373ffffffffffffffffffffffffffffffffffffffff16021790555060016000806101000a81548160ff0219169083151502179055505b50565b6000600980549050905090565b60606001805480602002602001604051908101604052809291908181526020018280548015610cd557602002820191906000526020600020905b815481526020019060010190808311610cc1575b5050505050905090565b600080600080610ced61113c565b610cf5610c7a565b9250600091505b82821015610d8c57600982815481101515610d1357fe5b9060005260206000200160000160009054906101000a900473ffffffffffffffffffffffffffffffffffffffff1673ffffffffffffffffffffffffffffffffffffffff168673ffffffffffffffffffffffffffffffffffffffff161415610d7f57819350839450610e4c565b8180600101925050610cfc565b6020604051908101604052808773ffffffffffffffffffffffffffffffffffffffff16815250905060098190806001815401808255809150509060018203906000526020600020016000909192909190915060008201518160000160006101000a81548173ffffffffffffffffffffffffffffffffffffffff021916908373ffffffffffffffffffffffffffffffffffffffff16021790555050509350600184039350600060076000868152602001908152602001600020819055508394505b50505050919050565b600660009054906101000a900473ffffffffffffffffffffffffffffffffffffffff1673ffffffffffffffffffffffffffffffffffffffff166108fc349081150290604051600060405180830381858888f19350505050158015610ebd573d6000803e3d6000fd5b50565b6000806000806000809054906101000a900460ff16600254600354600560009054906101000a900473ffffffffffffffffffffffffffffffffffffffff16935093509350935090919293565b600081600560009054906101000a900473ffffffffffffffffffffffffffffffffffffffff1673ffffffffffffffffffffffffffffffffffffffff168173ffffffffffffffffffffffffffffffffffffffff161415610fac5760025484111515610fab57610f7983610cdf565b915083600760008481526020019081526020016000208190555083600260008282540392505081905550836003819055505b5b50505050565b600881815481101515610fc157fe5b90600052602060002090600502016000915090508060000154908060010154908060020154908060030160009054906101000a900473ffffffffffffffffffffffffffffffffffffffff16908060040160009054906101000a900473ffffffffffffffffffffffffffffffffffffffff16908060040160149054906101000a900460ff16905086565b60098181548110151561105957fe5b906000526020600020016000915090508060000160009054906101000a900473ffffffffffffffffffffffffffffffffffffffff16905081565b80600660006101000a81548173ffffffffffffffffffffffffffffffffffffffff021916908373ffffffffffffffffffffffffffffffffffffffff16021790555050565b60c060405190810160405280600081526020016000815260200160008152602001600073ffffffffffffffffffffffffffffffffffffffff168152602001600073ffffffffffffffffffffffffffffffffffffffff1681526020016000151581525090565b602060405190810160405280600073ffffffffffffffffffffffffffffffffffffffff16815250905600a165627a7a72305820c74f878620adff59d74247d8bd14f4b7f2d07401c743dc97bee79666a6182ffc0029",
  "source": "pragma solidity ^0.4.24;\n\ncontract FitoContract {\n\n    bool corporateAddrIsSet = false;        //회사 계정 및 유통주식소 초기화 여부\n    uint[] tester;\n    uint unissuedSharesOfCompany = 1000000;  //총 발행가능 주식수\n    uint issuedSharesOfCompany;      //유통 발행 주식수\n    uint balance;                   //ETH transfer 전송할 이더 수량 저장을 위한 임시 변수\n    address corporateAddr;          //최초 발행시 거래 없이 주식을 갖게 되는 회사의 대표 주소\n    address ethTaker;               //Eth transfer 수령자 저장을 위한 임시 변수\n\n    struct tradingData {\n        uint tradingShares;         //거래할 주식수\n        uint tradingPrice;          //거래할 총액(ETH)\n        uint timestamp;             //거래시간\n        address sellerAddr;         //주식 양도자\n        address buyerAddr;          //주식 양수자\n        bool isTradingComplete;     //거래 및 ETH 송금 완료\n    }\n\n    struct shareOwnerList {\n        address ownerAddr;\n    }\n    mapping (uint => uint) ownedShares;\n\n    tradingData[] public tradingDatas;\n    shareOwnerList[] public shareOwnerLists;\n\n    // -----------------------------------------------------------\n    //회사 주식 최초 발행시 필요한 functions\n    // -----------------------------------------------------------\n    //회사 발행주식 초기화를 위해 회사 대표 corporateAddr 설정\n    function setCorporateAddr(address _userAddr) public {\n        if( corporateAddrIsSet == false ) {\n            initShareholderAddr(_userAddr);\n            corporateAddr = _userAddr;\n            corporateAddrIsSet = true;\n        }\n    }\n\n    //corporateAddr 검증 modifier\n    modifier onlyCorporateAddr(address _userAddr) {\n        if(_userAddr == corporateAddr) {\n            _;\n        }\n    }\n\n    //최초 거래 전 회사 발행주식 값을 초기화(=주식발행)\n    function initSharesOfCorporate(uint _issuingShares, address _userAddr) public onlyCorporateAddr(_userAddr) {\n        if(_issuingShares <= unissuedSharesOfCompany) {\n            uint ownerIdx = initShareholderAddr(_userAddr);\n            ownedShares[ownerIdx] = _issuingShares;\n            unissuedSharesOfCompany -= _issuingShares;\n            issuedSharesOfCompany = _issuingShares;\n        }\n    }\n    // -----------------------------------------------------------\n\n\n    // -----------------------------------------------------------\n    // EOA-CA-EOA ETH transfer를 위한 functions\n    // -----------------------------------------------------------\n    //로깅을 위한 이벤트\n    event Sended (\n        uint value,\n        uint balance\n    );\n\n    //Eth 수령자 저장\n    function setEthTaker(address _ethTaker) private {\n        ethTaker = _ethTaker;\n    }\n\n    //호출자가 보낼 Eth 수량을 임시 저장\n    function sending() public payable {\n        balance = msg.value;\n        emit Sended(msg.value, balance);\n    }\n\n    //set함수를 통해 저장한 주소에 이더를 전송\n    function transfer() public payable {\n        ethTaker.transfer(msg.value);\n    }\n    // -----------------------------------------------------------\n\n\n    //메타마스크 최초 접속시 shareOwnerLists에 명시적 저장 후 주주 순번 리턴, 있다면 그 인덱스 리턴\n    function initShareholderAddr(address _shareholderAddr) public returns(uint _ownerIdx) {\n        uint ownerIdx;\n        uint lengthOfOwnerLists = getLengthOfshareOwnerLists();\n        for(uint i = 0; i < lengthOfOwnerLists; i++) {\n            if( _shareholderAddr == shareOwnerLists[i].ownerAddr ) {\n                ownerIdx = i;\n                return ownerIdx;\n            }\n        }\n        shareOwnerList memory newshareOwnerList = shareOwnerList(_shareholderAddr);\n        ownerIdx = shareOwnerLists.push(newshareOwnerList);\n        ownerIdx -= 1;\n        ownedShares[ownerIdx] = 0;\n        return ownerIdx;\n    }\n\n    // -----------------------------------------------------------\n    //주식 거래 함수\n    // -----------------------------------------------------------\n    //양수자가 거래 요청시 이벤트 캐치\n    event eventTradingDataAdded(\n        uint tradingShares,         //거래할 주식수\n        uint tradingPrice,          //거래할 총액(ETH)\n        uint timestamp,             //거래시간\n        address sellerAddr,         //주식 양도자\n        address buyerAddr,          //주식 양수자\n        bool isTradingComplete      //거래 및 ETH 송금 완료\n    );\n\n    //양수자가 거래를 요청하고 이더를 전송하는 함수\n    //차후 요청-승인 구조로 분화해야 함.\n    function addTradingData(address _sellerAddr, uint _tradingShares) public payable {\n        uint sellerIdx = initShareholderAddr(_sellerAddr);\n        uint buyerIdx = initShareholderAddr(msg.sender);\n        if(ownedShares[sellerIdx] >= _tradingShares && _tradingShares != 0){\n            tradingData memory newTradingData = tradingData(_tradingShares, msg.value, now, _sellerAddr, msg.sender, false);\n            uint tradingIdx = tradingDatas.push(newTradingData);\n            setEthTaker(_sellerAddr);\n            sending();\n            ownedShares[sellerIdx] -= _tradingShares;\n            ownedShares[buyerIdx] += _tradingShares;\n            transfer();\n            tradingDatas[tradingIdx-1].isTradingComplete = true;\n            emit eventTradingDataAdded(\n                tradingDatas[tradingIdx-1].tradingShares,\n                tradingDatas[tradingIdx-1].tradingPrice,\n                tradingDatas[tradingIdx-1].timestamp,\n                tradingDatas[tradingIdx-1].sellerAddr,\n                tradingDatas[tradingIdx-1].buyerAddr,\n                tradingDatas[tradingIdx-1].isTradingComplete\n            );\n        }\n    }\n    // -----------------------------------------------------------\n    // 각종 조회용 함수\n    // -----------------------------------------------------------\n    // [Protyotype1 : 주주명부 조회용] 총 등록 주주 수 리턴\n    function getLengthOfshareOwnerLists() public view returns (uint) {\n        return shareOwnerLists.length;\n    }\n\n    // [Protyotype1 : 주주명부 조회용] 주주 인덱스와 매칭된 주주 주소 리턴\n    function getAddrOfshareOwner(uint _ownerIndex) public view returns (address) {\n        return shareOwnerLists[_ownerIndex].ownerAddr;\n    }\n\n    // [Protyotype1 : 주주명부 조회용] 주주가 가진 주식수 리턴\n    function getOwnedShares(uint _ownerIndex) public view returns (uint){\n        return ownedShares[_ownerIndex];\n    }\n\n    // [Protyotype3 : 주주의 주식거래내용 조회용] 총 거래 내역 수 리턴\n    function getLengthOftradingDatas() public view returns (uint) {\n        return tradingDatas.length;\n    }\n\n    // [Protyotype3 : 주주의 주식거래내용 조회용] 거래 번호에 따른 거래 struct 리턴\n    function getAspecificTradingData(uint _tradingIdx) public view returns (uint, uint, uint, address, address, bool) {\n        return (\n            tradingDatas[_tradingIdx].tradingShares,        //거래할 주식수\n            tradingDatas[_tradingIdx].tradingPrice,         //거래할 총액(ETH)\n            tradingDatas[_tradingIdx].timestamp,            //거래시간\n            tradingDatas[_tradingIdx].sellerAddr,           //주식 양도자\n            tradingDatas[_tradingIdx].buyerAddr,            //주식 양수자\n            tradingDatas[_tradingIdx].isTradingComplete     //거래 및 ETH 송금 완료\n        );\n    }\n    \n    function getCorporateInfo() public view returns(bool, uint, uint, address) {\n        return (\n            corporateAddrIsSet,         //회사 주식발행 초기화 여부\n            unissuedSharesOfCompany,    //회사 미발행 주식수\n            issuedSharesOfCompany,      //회사 유통 주식수\n            corporateAddr               //회사로 초기화한 계정\n        );\n    }\n\n    function getTester() public view returns(uint[]) {\n        return tester;\n    }\n    // -----------------------------------------------------------\n\n}",
  "sourcePath": "/Users/hyun/dev/Fito/fito.ga/contracts/FitoContract.sol",
  "compiler": {
    "name": "solc",
    "version": "0.4.24+commit.e67f0147.Emscripten.clang"
  },
  "schemaVersion": "2.0.1",
  "updatedAt": "2018-11-16T02:31:57.557Z"
}