{
  "contractName": "FitoContract",
  "abi": [
    {
      "constant": true,
      "inputs": [
        {
          "name": "",
          "type": "uint256"
        }
      ],
      "name": "tradingDatas",
      "outputs": [
        {
          "name": "tradingShares",
          "type": "uint256"
        },
        {
          "name": "tradingPrice",
          "type": "uint256"
        },
        {
          "name": "timestamp",
          "type": "uint256"
        },
        {
          "name": "sellerAddr",
          "type": "address"
        },
        {
          "name": "buyerAddr",
          "type": "address"
        },
        {
          "name": "isTradingComplete",
          "type": "bool"
        }
      ],
      "payable": false,
      "stateMutability": "view",
      "type": "function"
    },
    {
      "constant": true,
      "inputs": [
        {
          "name": "",
          "type": "uint256"
        }
      ],
      "name": "shareOwnerLists",
      "outputs": [
        {
          "name": "ownerAddr",
          "type": "address"
        }
      ],
      "payable": false,
      "stateMutability": "view",
      "type": "function"
    },
    {
      "anonymous": false,
      "inputs": [
        {
          "indexed": false,
          "name": "value",
          "type": "uint256"
        },
        {
          "indexed": false,
          "name": "balance",
          "type": "uint256"
        }
      ],
      "name": "Sended",
      "type": "event"
    },
    {
      "anonymous": false,
      "inputs": [
        {
          "indexed": false,
          "name": "tradingShares",
          "type": "uint256"
        },
        {
          "indexed": false,
          "name": "tradingPrice",
          "type": "uint256"
        },
        {
          "indexed": false,
          "name": "timestamp",
          "type": "uint256"
        },
        {
          "indexed": false,
          "name": "sellerAddr",
          "type": "address"
        },
        {
          "indexed": false,
          "name": "buyerAddr",
          "type": "address"
        },
        {
          "indexed": false,
          "name": "isTradingComplete",
          "type": "bool"
        }
      ],
      "name": "eventTradingDataAdded",
      "type": "event"
    },
    {
      "constant": false,
      "inputs": [
        {
          "name": "_corporateAddr",
          "type": "address"
        }
      ],
      "name": "setCorporateAddr",
      "outputs": [],
      "payable": false,
      "stateMutability": "nonpayable",
      "type": "function"
    },
    {
      "constant": false,
      "inputs": [
        {
          "name": "_issuingShares",
          "type": "uint256"
        }
      ],
      "name": "initSharesOfCorporate",
      "outputs": [],
      "payable": false,
      "stateMutability": "nonpayable",
      "type": "function"
    },
    {
      "constant": false,
      "inputs": [],
      "name": "transfer",
      "outputs": [],
      "payable": true,
      "stateMutability": "payable",
      "type": "function"
    },
    {
      "constant": false,
      "inputs": [
        {
          "name": "_shareholderAddr",
          "type": "address"
        }
      ],
      "name": "initShareholderAddr",
      "outputs": [
        {
          "name": "_ownerIdx",
          "type": "uint256"
        }
      ],
      "payable": false,
      "stateMutability": "nonpayable",
      "type": "function"
    },
    {
      "constant": false,
      "inputs": [
        {
          "name": "_sellerAddr",
          "type": "address"
        },
        {
          "name": "_tradingShares",
          "type": "uint256"
        }
      ],
      "name": "addTradingData",
      "outputs": [],
      "payable": true,
      "stateMutability": "payable",
      "type": "function"
    },
    {
      "constant": true,
      "inputs": [],
      "name": "getLengthOfshareOwnerLists",
      "outputs": [
        {
          "name": "",
          "type": "uint256"
        }
      ],
      "payable": false,
      "stateMutability": "view",
      "type": "function"
    },
    {
      "constant": true,
      "inputs": [
        {
          "name": "_ownerIndex",
          "type": "uint256"
        }
      ],
      "name": "getAddrOfshareOwner",
      "outputs": [
        {
          "name": "",
          "type": "address"
        }
      ],
      "payable": false,
      "stateMutability": "view",
      "type": "function"
    },
    {
      "constant": true,
      "inputs": [
        {
          "name": "_ownerIndex",
          "type": "uint256"
        }
      ],
      "name": "getOwnedShares",
      "outputs": [
        {
          "name": "",
          "type": "uint256"
        }
      ],
      "payable": false,
      "stateMutability": "view",
      "type": "function"
    },
    {
      "constant": true,
      "inputs": [],
      "name": "getLengthOftradingDatas",
      "outputs": [
        {
          "name": "",
          "type": "uint256"
        }
      ],
      "payable": false,
      "stateMutability": "view",
      "type": "function"
    },
    {
      "constant": true,
      "inputs": [
        {
          "name": "_tradingIdx",
          "type": "uint256"
        }
      ],
      "name": "getBuyerAddrOfaSpecificTrading",
      "outputs": [
        {
          "name": "",
          "type": "address"
        }
      ],
      "payable": false,
      "stateMutability": "view",
      "type": "function"
    },
    {
      "constant": true,
      "inputs": [
        {
          "name": "_tradingIdx",
          "type": "uint256"
        }
      ],
      "name": "getSellerAddrOfaSpecificTrading",
      "outputs": [
        {
          "name": "",
          "type": "address"
        }
      ],
      "payable": false,
      "stateMutability": "view",
      "type": "function"
    },
    {
      "constant": true,
      "inputs": [
        {
          "name": "_tradingIdx",
          "type": "uint256"
        }
      ],
      "name": "getTradingSharesOfaSpecificTrading",
      "outputs": [
        {
          "name": "",
          "type": "uint256"
        }
      ],
      "payable": false,
      "stateMutability": "view",
      "type": "function"
    },
    {
      "constant": true,
      "inputs": [
        {
          "name": "_tradingIdx",
          "type": "uint256"
        }
      ],
      "name": "getTimestampOfaSpecificTrading",
      "outputs": [
        {
          "name": "",
          "type": "uint256"
        }
      ],
      "payable": false,
      "stateMutability": "view",
      "type": "function"
    },
    {
      "constant": true,
      "inputs": [
        {
          "name": "_tradingIdx",
          "type": "uint256"
        }
      ],
      "name": "getTradingPriceOfaSpecificTrading",
      "outputs": [
        {
          "name": "",
          "type": "uint256"
        }
      ],
      "payable": false,
      "stateMutability": "view",
      "type": "function"
    },
    {
      "constant": true,
      "inputs": [
        {
          "name": "_tradingIdx",
          "type": "uint256"
        }
      ],
      "name": "getIsTradingCompleteOfaSpecificTrading",
      "outputs": [
        {
          "name": "",
          "type": "bool"
        }
      ],
      "payable": false,
      "stateMutability": "view",
      "type": "function"
    },
    {
      "constant": true,
      "inputs": [],
      "name": "getUnissuedShareOfCompany",
      "outputs": [
        {
          "name": "",
          "type": "uint256"
        }
      ],
      "payable": false,
      "stateMutability": "view",
      "type": "function"
    },
    {
      "constant": true,
      "inputs": [],
      "name": "getIssuedShares",
      "outputs": [
        {
          "name": "",
          "type": "uint256"
        }
      ],
      "payable": false,
      "stateMutability": "view",
      "type": "function"
    }
  ],
  "bytecode": "0x608060405260008060006101000a81548160ff021916908315150217905550620f424060015534801561003157600080fd5b5061120f806100416000396000f300608060405260043610610107576000357c0100000000000000000000000000000000000000000000000000000000900463ffffffff168063053616d11461010c5780630dd8cc36146101395780631290a8381461017a57806316931f1f146101ba57806323420cdc14610227578063266d06fb146102525780632ddf1f69146102935780633dac127e146103005780633f53f3071461034357806359c3aea31461036e578063793e657f146103995780638413739f146103de5780638a4068dd146104355780638fe00b211461043f578063a3f9a6a01461046a578063b2cfcbe6146104ab578063c3e53c5114610518578063e5900568146105d8578063e84dff6d14610619575b600080fd5b34801561011857600080fd5b5061013760048036038101908080359060200190929190505050610686565b005b34801561014557600080fd5b506101646004803603810190808035906020019092919050505061072f565b6040518082815260200191505060405180910390f35b6101b8600480360381019080803573ffffffffffffffffffffffffffffffffffffffff16906020019092919080359060200190929190505050610759565b005b3480156101c657600080fd5b506101e560048036038101908080359060200190929190505050610bad565b604051808273ffffffffffffffffffffffffffffffffffffffff1673ffffffffffffffffffffffffffffffffffffffff16815260200191505060405180910390f35b34801561023357600080fd5b5061023c610bf3565b6040518082815260200191505060405180910390f35b34801561025e57600080fd5b5061027d60048036038101908080359060200190929190505050610c00565b6040518082815260200191505060405180910390f35b34801561029f57600080fd5b506102be60048036038101908080359060200190929190505050610c1d565b604051808273ffffffffffffffffffffffffffffffffffffffff1673ffffffffffffffffffffffffffffffffffffffff16815260200191505060405180910390f35b34801561030c57600080fd5b50610341600480360381019080803573ffffffffffffffffffffffffffffffffffffffff169060200190929190505050610c67565b005b34801561034f57600080fd5b50610358610ceb565b6040518082815260200191505060405180910390f35b34801561037a57600080fd5b50610383610cf8565b6040518082815260200191505060405180910390f35b3480156103a557600080fd5b506103c460048036038101908080359060200190929190505050610d02565b604051808215151515815260200191505060405180910390f35b3480156103ea57600080fd5b5061041f600480360381019080803573ffffffffffffffffffffffffffffffffffffffff169060200190929190505050610d39565b6040518082815260200191505060405180910390f35b61043d610ed2565b005b34801561044b57600080fd5b50610454610f3d565b6040518082815260200191505060405180910390f35b34801561047657600080fd5b5061049560048036038101908080359060200190929190505050610f47565b6040518082815260200191505060405180910390f35b3480156104b757600080fd5b506104d660048036038101908080359060200190929190505050610f71565b604051808273ffffffffffffffffffffffffffffffffffffffff1673ffffffffffffffffffffffffffffffffffffffff16815260200191505060405180910390f35b34801561052457600080fd5b5061054360048036038101908080359060200190929190505050610fbb565b604051808781526020018681526020018581526020018473ffffffffffffffffffffffffffffffffffffffff1673ffffffffffffffffffffffffffffffffffffffff1681526020018373ffffffffffffffffffffffffffffffffffffffff1673ffffffffffffffffffffffffffffffffffffffff16815260200182151515158152602001965050505050505060405180910390f35b3480156105e457600080fd5b5061060360048036038101908080359060200190929190505050611053565b6040518082815260200191505060405180910390f35b34801561062557600080fd5b506106446004803603810190808035906020019092919050505061107d565b604051808273ffffffffffffffffffffffffffffffffffffffff1673ffffffffffffffffffffffffffffffffffffffff16815260200191505060405180910390f35b6000600460009054906101000a900473ffffffffffffffffffffffffffffffffffffffff1673ffffffffffffffffffffffffffffffffffffffff163373ffffffffffffffffffffffffffffffffffffffff1614151561072b5760015482111515156106f057600080fd5b6106f933610d39565b905081600660008381526020019081526020016000208190555081600160008282540392505081905550816002819055505b5050565b600060078281548110151561074057fe5b9060005260206000209060050201600001549050919050565b600080610764611154565b60008560006006600061077684610d39565b81526020019081526020016000205411151561079157600080fd5b61079a87610d39565b94506107a533610d39565b9350856006600087815260200190815260200160002054101580156107cb575060008614155b15156107d657600080fd5b60c0604051908101604052808781526020013481526020014281526020018873ffffffffffffffffffffffffffffffffffffffff1681526020013373ffffffffffffffffffffffffffffffffffffffff1681526020016000151581525092506007839080600181540180825580915050906001820390600052602060002090600502016000909192909190915060008201518160000155602082015181600101556040820151816002015560608201518160030160006101000a81548173ffffffffffffffffffffffffffffffffffffffff021916908373ffffffffffffffffffffffffffffffffffffffff16021790555060808201518160040160006101000a81548173ffffffffffffffffffffffffffffffffffffffff021916908373ffffffffffffffffffffffffffffffffffffffff16021790555060a08201518160040160146101000a81548160ff0219169083151502179055505050915061093c876110c6565b61094461110a565b85600660008781526020019081526020016000206000828254039250508190555085600660008681526020019081526020016000206000828254019250508190555061098e610ed2565b60016007600184038154811015156109a257fe5b906000526020600020906005020160040160146101000a81548160ff0219169083151502179055507fb118fa0e58d615f594ffb00e135c05d99c534128131cd77dadccfbaea10862366007600184038154811015156109fd57fe5b906000526020600020906005020160000154600760018503815481101515610a2157fe5b906000526020600020906005020160010154600760018603815481101515610a4557fe5b906000526020600020906005020160020154600760018703815481101515610a6957fe5b906000526020600020906005020160030160009054906101000a900473ffffffffffffffffffffffffffffffffffffffff16600760018803815481101515610aad57fe5b906000526020600020906005020160040160009054906101000a900473ffffffffffffffffffffffffffffffffffffffff16600760018903815481101515610af157fe5b906000526020600020906005020160040160149054906101000a900460ff16604051808781526020018681526020018581526020018473ffffffffffffffffffffffffffffffffffffffff1673ffffffffffffffffffffffffffffffffffffffff1681526020018373ffffffffffffffffffffffffffffffffffffffff1673ffffffffffffffffffffffffffffffffffffffff16815260200182151515158152602001965050505050505060405180910390a150505050505050565b6000600882815481101515610bbe57fe5b9060005260206000200160000160009054906101000a900473ffffffffffffffffffffffffffffffffffffffff169050919050565b6000600780549050905090565b600060066000838152602001908152602001600020549050919050565b6000600782815481101515610c2e57fe5b906000526020600020906005020160030160009054906101000a900473ffffffffffffffffffffffffffffffffffffffff169050919050565b600015156000809054906101000a900460ff1615151415610ce857610c8b81610d39565b5080600460006101000a81548173ffffffffffffffffffffffffffffffffffffffff021916908373ffffffffffffffffffffffffffffffffffffffff16021790555060016000806101000a81548160ff0219169083151502179055505b50565b6000600880549050905090565b6000600254905090565b6000600782815481101515610d1357fe5b906000526020600020906005020160040160149054906101000a900460ff169050919050565b6000806000806000610d496111b9565b6000809550610d56610ceb565b93506000841415610d6657600193505b600092505b83831015610df8578773ffffffffffffffffffffffffffffffffffffffff16600884815481101515610d9957fe5b9060005260206000200160000160009054906101000a900473ffffffffffffffffffffffffffffffffffffffff1673ffffffffffffffffffffffffffffffffffffffff161415610deb57600195508294505b8280600101935050610d6b565b600015158615151415610ec3576020604051908101604052803373ffffffffffffffffffffffffffffffffffffffff16815250915060088290806001815401808255809150509060018203906000526020600020016000909192909190915060008201518160000160006101000a81548173ffffffffffffffffffffffffffffffffffffffff021916908373ffffffffffffffffffffffffffffffffffffffff1602179055505050905060006006600083815260200190815260200160002081905550809650610ec7565b8496505b505050505050919050565b600560009054906101000a900473ffffffffffffffffffffffffffffffffffffffff1673ffffffffffffffffffffffffffffffffffffffff166108fc349081150290604051600060405180830381858888f19350505050158015610f3a573d6000803e3d6000fd5b50565b6000600154905090565b6000600782815481101515610f5857fe5b9060005260206000209060050201600101549050919050565b6000600782815481101515610f8257fe5b906000526020600020906005020160040160009054906101000a900473ffffffffffffffffffffffffffffffffffffffff169050919050565b600781815481101515610fca57fe5b90600052602060002090600502016000915090508060000154908060010154908060020154908060030160009054906101000a900473ffffffffffffffffffffffffffffffffffffffff16908060040160009054906101000a900473ffffffffffffffffffffffffffffffffffffffff16908060040160149054906101000a900460ff16905086565b600060078281548110151561106457fe5b9060005260206000209060050201600201549050919050565b60088181548110151561108c57fe5b906000526020600020016000915090508060000160009054906101000a900473ffffffffffffffffffffffffffffffffffffffff16905081565b80600560006101000a81548173ffffffffffffffffffffffffffffffffffffffff021916908373ffffffffffffffffffffffffffffffffffffffff16021790555050565b346003819055507f8af68a55d4ee2bb2549f41a62e9a9ff1288d3a581c8960e3ecf22e9fa4b4691634600354604051808381526020018281526020019250505060405180910390a1565b60c060405190810160405280600081526020016000815260200160008152602001600073ffffffffffffffffffffffffffffffffffffffff168152602001600073ffffffffffffffffffffffffffffffffffffffff1681526020016000151581525090565b602060405190810160405280600073ffffffffffffffffffffffffffffffffffffffff16815250905600a165627a7a7230582088bdc1efc772a44c4f5147a5a466c6fcec06bdd9a53935b2a6e31b8b98fec2da0029",
  "source": "pragma solidity ^0.4.24;\n\ncontract FitoContract {\n\n    bool corporateAddrIsSet = false;        //회사 계정 및 유통주식소 초기화 여부\n    uint unissuedShareOfCompany = 1000000;  //총 발행가능 주식수\n    uint issuedShareOfCompany;      //유통 발행 주식수\n    uint balance;                   //ETH transfer 전송할 이더 수량 저장을 위한 임시 변수\n    address corporateAddr;          //최초 발행시 거래 없이 주식을 갖게 되는 회사의 대표 주소\n    address ethTaker;               //Eth transfer 수령자 저장을 위한 임시 변수\n\n    struct tradingData {\n        uint tradingShares;         //거래할 주식수\n        uint tradingPrice;          //거래할 총액(ETH)\n        uint timestamp;             //거래시간\n        address sellerAddr;         //주식 양도자\n        address buyerAddr;          //주식 양수자\n        bool isTradingComplete;     //거래 및 ETH 송금 완료\n    }\n\n    struct shareOwnerList {\n        address ownerAddr;\n    }\n    mapping (uint => uint) ownedShares;\n\n    tradingData[] public tradingDatas;\n    shareOwnerList[] public shareOwnerLists;\n\n    // -----------------------------------------------------------\n    //회사 주식 최초 발행시 필요한 functions\n    // -----------------------------------------------------------\n    //회사 발행주식 초기화를 위해 회사 대표 corporateAddr 설정\n    function setCorporateAddr(address _corporateAddr) public {\n        if( corporateAddrIsSet == false ) {\n            initShareholderAddr(_corporateAddr);\n            corporateAddr = _corporateAddr;\n            corporateAddrIsSet = true;\n        }\n    }\n\n    //corporateAddr 검증 modifier\n    modifier onlyCorporateAddr() {\n        if(msg.sender != corporateAddr) {\n            _;\n        }\n    }\n\n    //최초 거래 전 회사 발행주식 값을 초기화(=주식발행)\n    function initSharesOfCorporate(uint _issuingShares) public onlyCorporateAddr() {\n        require( _issuingShares <= unissuedShareOfCompany);\n        uint ownerIdx = initShareholderAddr(msg.sender);\n        ownedShares[ownerIdx] = _issuingShares;\n        unissuedShareOfCompany -= _issuingShares;\n        issuedShareOfCompany = _issuingShares;\n    }\n    // -----------------------------------------------------------\n\n\n    // -----------------------------------------------------------\n    // EOA-CA-EOA ETH transfer를 위한 functions\n    // -----------------------------------------------------------\n    //로깅을 위한 이벤트\n    event Sended (\n        uint value,\n        uint balance\n    );\n\n    //Eth 수령자 저장\n    function setEthTaker(address _ethTaker) private {\n        ethTaker = _ethTaker;\n    }\n\n    //호출자가 보낼 Eth 수량을 임시 저장\n    function sending() private {\n        balance = msg.value;\n        emit Sended(msg.value, balance);\n    }\n\n    //set함수를 통해 저장한 주소에 이더를 전송\n    function transfer() payable public {\n        ethTaker.transfer(msg.value);\n    }\n    // -----------------------------------------------------------\n\n\n    //메타마스크 최초 접속시 shareOwnerLists에 명시적 저장 후 주주 순번 리턴\n    function initShareholderAddr(address _shareholderAddr) public returns(uint _ownerIdx) {\n        bool ownerChecker = false;\n        uint ownerExistIdx;\n        uint ownerIdx = getLengthOfshareOwnerLists();\n        if( ownerIdx == 0) {\n            ownerIdx = 1;\n        }\n        for(uint i = 0; i < ownerIdx; i++) {\n            if(shareOwnerLists[i].ownerAddr == _shareholderAddr) {\n                ownerChecker = true;\n                ownerExistIdx = i;\n            }\n        }\n        if( ownerChecker == false ) {\n            shareOwnerList memory newshareOwnerList = shareOwnerList(msg.sender);\n            uint newOwnerIdx = shareOwnerLists.push(newshareOwnerList);\n            ownedShares[newOwnerIdx] = 0;\n            return newOwnerIdx;\n        } else {\n            return ownerExistIdx;\n        }\n    }\n\n    // -----------------------------------------------------------\n    //주식 거래 함수\n    // -----------------------------------------------------------\n    //양수자가 거래 요청시 이벤트 캐치\n    event eventTradingDataAdded(\n        uint tradingShares,         //거래할 주식수\n        uint tradingPrice,          //거래할 총액(ETH)\n        uint timestamp,             //거래시간\n        address sellerAddr,         //주식 양도자\n        address buyerAddr,          //주식 양수자\n        bool isTradingComplete      //거래 및 ETH 송금 완료\n    );\n\n    // 주식 보유한 주주인지 체크하는 modifier\n    modifier onlyShareOwner(address _Addr) {\n        require( ownedShares[initShareholderAddr(_Addr)] > 0 );\n        _;\n    }\n\n    //양수자가 거래를 요청하고 이더를 전송하는 함수\n    //차후 요청-승인 구조로 분화해야 함.\n    function addTradingData(address _sellerAddr, uint _tradingShares) public payable onlyShareOwner(_sellerAddr) {\n        uint sellerIdx = initShareholderAddr(_sellerAddr);\n        uint buyerIdx = initShareholderAddr(msg.sender);\n        require(ownedShares[sellerIdx] >= _tradingShares && _tradingShares != 0);\n        tradingData memory newTradingData = tradingData(_tradingShares, msg.value, now, _sellerAddr, msg.sender, false);\n        uint tradingIdx = tradingDatas.push(newTradingData);\n        setEthTaker(_sellerAddr);\n        sending();\n        ownedShares[sellerIdx] -= _tradingShares;\n        ownedShares[buyerIdx] += _tradingShares;\n        transfer();\n        tradingDatas[tradingIdx-1].isTradingComplete = true;\n        emit eventTradingDataAdded(\n            tradingDatas[tradingIdx-1].tradingShares,\n            tradingDatas[tradingIdx-1].tradingPrice,\n            tradingDatas[tradingIdx-1].timestamp,\n            tradingDatas[tradingIdx-1].sellerAddr,\n            tradingDatas[tradingIdx-1].buyerAddr,\n            tradingDatas[tradingIdx-1].isTradingComplete\n        );\n    }\n    // -----------------------------------------------------------\n    // 각종 조회용 함수\n    // -----------------------------------------------------------\n    // [Protyotype1 : 주주명부 조회용] 총 등록 주주 수 리턴\n    function getLengthOfshareOwnerLists() public view returns (uint) {\n        return shareOwnerLists.length;\n    }\n\n    // [Protyotype1 : 주주명부 조회용] 주주 인덱스와 매칭된 주주 주소 리턴\n    function getAddrOfshareOwner(uint _ownerIndex) public view returns (address) {\n        return shareOwnerLists[_ownerIndex].ownerAddr;\n    }\n\n    // [Protyotype1 : 주주명부 조회용] 주주가 가진 주식수 리턴\n    function getOwnedShares(uint _ownerIndex) public view returns (uint){\n        return ownedShares[_ownerIndex];\n    }\n\n    // [Protyotype3 : 주주의 주식거래내용 조회용] 총 거래 내역 수 리턴\n    function getLengthOftradingDatas() public view returns (uint) {\n        return tradingDatas.length;\n    }\n\n    // [Protyotype3 : 주주의 주식거래내용 조회용] 거래 번호에 따른 양수자 리턴\n    function getBuyerAddrOfaSpecificTrading(uint _tradingIdx) public view returns (address) {\n        return tradingDatas[_tradingIdx].buyerAddr;\n    }\n\n    // [Protyotype3 : 주주의 주식거래내용 조회용] 거래 번호에 따른 양도자 리턴\n    function getSellerAddrOfaSpecificTrading(uint _tradingIdx) public view returns (address) {\n        return tradingDatas[_tradingIdx].sellerAddr;\n    }\n\n    // [Protyotype3 : 주주의 주식거래내용 조회용] 거래 번호에 따른 거래 주식수 리턴\n    function getTradingSharesOfaSpecificTrading(uint _tradingIdx) public view returns (uint) {\n        return tradingDatas[_tradingIdx].tradingShares;\n    }\n\n    // [Protyotype3 : 주주의 주식거래내용 조회용] 거래 번호에 따른 거래 시간 리턴\n    function getTimestampOfaSpecificTrading(uint _tradingIdx) public view returns (uint) {\n        return tradingDatas[_tradingIdx].timestamp;\n    }\n\n    // [Protyotype3 : 주주의 주식거래내용 조회용] 거래 번호에 따른 거래 가격(ETH) 리턴\n    function getTradingPriceOfaSpecificTrading(uint _tradingIdx) public view returns (uint) {\n        return tradingDatas[_tradingIdx].tradingPrice;\n    }\n\n    // [Protyotype3 : 주주의 주식거래내용 조회용] 거래 번호에 따른 거래 트랜잭션 완료 여부 리턴\n    function getIsTradingCompleteOfaSpecificTrading(uint _tradingIdx) public view returns (bool) {\n        return tradingDatas[_tradingIdx].isTradingComplete;\n    }\n\n    //회사 미발행 주식수\n    function getUnissuedShareOfCompany() public view returns(uint) {\n        return unissuedShareOfCompany;\n    }\n\n    //회사 유통 주식수\n    function getIssuedShares() public view returns(uint) {\n        return issuedShareOfCompany;\n    }\n    // -----------------------------------------------------------\n\n    //CA에 Eth를 transfer하기 위한 함수(백업) \n    // function sendEth() public payable {}\n}",
  "sourcePath": "/Users/hyun/dev/Fito/fito.ga/contracts/FitoContract.sol",
  "compiler": {
    "name": "solc",
    "version": "0.4.24+commit.e67f0147.Emscripten.clang"
  },
  "schemaVersion": "2.0.1",
  "updatedAt": "2018-11-15T09:44:58.923Z"
}