{
  "contractName": "GeneralMeeting",
  "abi": [
    {
      "constant": true,
      "inputs": [
        {
          "name": "",
          "type": "uint256"
        }
      ],
      "name": "tradingDatas",
      "outputs": [
        {
          "name": "tradingShares",
          "type": "uint256"
        },
        {
          "name": "sellerAddr",
          "type": "address"
        },
        {
          "name": "buyerAddr",
          "type": "address"
        },
        {
          "name": "tradingPrice",
          "type": "uint256"
        },
        {
          "name": "timestamp",
          "type": "uint256"
        },
        {
          "name": "isTradingComplete",
          "type": "bool"
        }
      ],
      "payable": false,
      "stateMutability": "view",
      "type": "function"
    },
    {
      "constant": false,
      "inputs": [
        {
          "name": "_corpAddr",
          "type": "address"
        }
      ],
      "name": "initShares",
      "outputs": [],
      "payable": false,
      "stateMutability": "nonpayable",
      "type": "function"
    },
    {
      "constant": false,
      "inputs": [
        {
          "name": "_sellerAddr",
          "type": "address"
        },
        {
          "name": "_tradingShares",
          "type": "uint256"
        }
      ],
      "name": "addTradingData",
      "outputs": [
        {
          "name": "",
          "type": "uint256"
        }
      ],
      "payable": true,
      "stateMutability": "payable",
      "type": "function"
    },
    {
      "constant": true,
      "inputs": [
        {
          "name": "_ownerAddr",
          "type": "address"
        }
      ],
      "name": "getTotalStuck",
      "outputs": [
        {
          "name": "",
          "type": "uint256"
        }
      ],
      "payable": false,
      "stateMutability": "view",
      "type": "function"
    }
  ],
  "bytecode": "0x608060405261271060005534801561001657600080fd5b5061070d806100266000396000f300608060405260043610610062576000357c0100000000000000000000000000000000000000000000000000000000900463ffffffff1680631290a83814610067578063610495ef146100bb578063c3e53c51146100fe578063d60fdc50146101be575b600080fd5b6100a5600480360381019080803573ffffffffffffffffffffffffffffffffffffffff16906020019092919080359060200190929190505050610215565b6040518082815260200191505060405180910390f35b3480156100c757600080fd5b506100fc600480360381019080803573ffffffffffffffffffffffffffffffffffffffff169060200190929190505050610507565b005b34801561010a57600080fd5b5061012960048036038101908080359060200190929190505050610557565b604051808781526020018673ffffffffffffffffffffffffffffffffffffffff1673ffffffffffffffffffffffffffffffffffffffff1681526020018573ffffffffffffffffffffffffffffffffffffffff1673ffffffffffffffffffffffffffffffffffffffff16815260200184815260200183815260200182151515158152602001965050505050505060405180910390f35b3480156101ca57600080fd5b506101ff600480360381019080803573ffffffffffffffffffffffffffffffffffffffff1690602001909291905050506105ef565b6040518082815260200191505060405180910390f35b600061021f61067c565b600083600260008773ffffffffffffffffffffffffffffffffffffffff1673ffffffffffffffffffffffffffffffffffffffff1681526020019081526020016000205410158015610271575060008414155b151561027c57600080fd5b60c0604051908101604052808581526020013373ffffffffffffffffffffffffffffffffffffffff1681526020018673ffffffffffffffffffffffffffffffffffffffff168152602001348152602001428152602001600015158152509150600382908060018154018082558091505090600182039060005260206000209060060201600090919290919091506000820151816000015560208201518160010160006101000a81548173ffffffffffffffffffffffffffffffffffffffff021916908373ffffffffffffffffffffffffffffffffffffffff16021790555060408201518160020160006101000a81548173ffffffffffffffffffffffffffffffffffffffff021916908373ffffffffffffffffffffffffffffffffffffffff160217905550606082015181600301556080820151816004015560a08201518160050160006101000a81548160ff021916908315150217905550505090506103e285610638565b83600260003373ffffffffffffffffffffffffffffffffffffffff1673ffffffffffffffffffffffffffffffffffffffff1681526020019081526020016000206000828254039250508190555083600260008773ffffffffffffffffffffffffffffffffffffffff1673ffffffffffffffffffffffffffffffffffffffff168152602001908152602001600020600082825401925050819055508473ffffffffffffffffffffffffffffffffffffffff166108fc349081150290604051600060405180830381858888f193505050501580156104c2573d6000803e3d6000fd5b5060016003828154811015156104d457fe5b906000526020600020906006020160050160006101000a81548160ff021916908315150217905550809250505092915050565b600054600260008373ffffffffffffffffffffffffffffffffffffffff1673ffffffffffffffffffffffffffffffffffffffff168152602001908152602001600020819055506000808190555050565b60038181548110151561056657fe5b90600052602060002090600602016000915090508060000154908060010160009054906101000a900473ffffffffffffffffffffffffffffffffffffffff16908060020160009054906101000a900473ffffffffffffffffffffffffffffffffffffffff16908060030154908060040154908060050160009054906101000a900460ff16905086565b6000600260008373ffffffffffffffffffffffffffffffffffffffff1673ffffffffffffffffffffffffffffffffffffffff168152602001908152602001600020549050919050565b80600160006101000a81548173ffffffffffffffffffffffffffffffffffffffff021916908373ffffffffffffffffffffffffffffffffffffffff16021790555050565b60c06040519081016040528060008152602001600073ffffffffffffffffffffffffffffffffffffffff168152602001600073ffffffffffffffffffffffffffffffffffffffff168152602001600081526020016000815260200160001515815250905600a165627a7a7230582057fb2725c3f004425ad251fc6aa88998b88a83ee4dbee59f36b3a9a33ec833a50029",
  "source": "pragma solidity ^0.4.24;\n\n//token 초기값 이슈 아직X\n\ncontract GeneralMeeting {\n    uint shareOfCompany = 10000; //회사-주주\n    address ethTaker;\n\n    mapping (address => uint) ownedShares;\n\n    struct tradingData {\n        uint tradingShares; //from 주주 개개인의 거래한 주식수\n        address sellerAddr; //주식 양도자\n        address buyerAddr; //주식 양수자\n        uint tradingPrice;\n        uint timestamp;\n        bool isTradingComplete;\n    }\n\n    tradingData[] public tradingDatas;\n\n    function initShares(address _corpAddr) public {\n        ownedShares[_corpAddr] = shareOfCompany;\n        shareOfCompany = 0;\n    }\n\n    function setEthTaker(address _ethTaker) private {\n        ethTaker = _ethTaker;\n    }\n\n    //stockData 추가 ==> 양수자가 거래 요청\n    function addTradingData(address _sellerAddr, uint _tradingShares) payable public returns(uint) {\n        require(ownedShares[_sellerAddr] >= _tradingShares && _tradingShares != 0);\n        tradingData memory newTradingData = tradingData(_tradingShares, msg.sender, _sellerAddr, msg.value, now, false);\n        uint tradingIdx = tradingDatas.push(newTradingData);\n        setEthTaker(_sellerAddr);\n        ownedShares[msg.sender] -= _tradingShares;\n        ownedShares[_sellerAddr] += _tradingShares;\n        _sellerAddr.transfer(msg.value);\n        tradingDatas[tradingIdx].isTradingComplete = true;\n        return tradingIdx;\n    }\n\n    //총 거래 내역 수 리턴\n    // function getLengthOftradingDatas() public view returns (uint) {\n    //     return tradingDatas.length();\n    // }\n\n    //거래 내역 리턴\n    // function getProductStruct(uint _idx) public view returns (tradingData[]) {\n    //     return tradingDatas[_idx];\n    // }\n\n    function getTotalStuck(address _ownerAddr) public view returns (uint){\n        return ownedShares[_ownerAddr];\n    }\n}\n",
  "sourcePath": "/Users/hyun/dev/Fito/fito.ga/contracts/GeneralMeeting.sol",
  "compiler": {
    "name": "solc",
    "version": "0.4.24+commit.e67f0147.Emscripten.clang"
  },
  "schemaVersion": "2.0.1",
  "updatedAt": "2018-11-13T04:58:09.117Z"
}