{
  "contractName": "GeneralMeeting",
  "abi": [
    {
      "constant": true,
      "inputs": [
        {
          "name": "",
          "type": "uint256"
        }
      ],
      "name": "stockDatas",
      "outputs": [
        {
          "name": "token",
          "type": "uint256"
        },
        {
          "name": "walletAddrFrom",
          "type": "address"
        },
        {
          "name": "walletAddrTo",
          "type": "address"
        },
        {
          "name": "tradingPrice",
          "type": "uint256"
        },
        {
          "name": "timestamp",
          "type": "uint256"
        }
      ],
      "payable": false,
      "stateMutability": "view",
      "type": "function"
    },
    {
      "constant": false,
      "inputs": [
        {
          "name": "_walletAddrTo",
          "type": "address"
        },
        {
          "name": "_numTk",
          "type": "uint256"
        }
      ],
      "name": "addStocks",
      "outputs": [],
      "payable": true,
      "stateMutability": "payable",
      "type": "function"
    },
    {
      "constant": true,
      "inputs": [
        {
          "name": "_idx",
          "type": "uint256"
        },
        {
          "name": "_walletAddr",
          "type": "address"
        }
      ],
      "name": "getProductStruct",
      "outputs": [
        {
          "name": "",
          "type": "address"
        },
        {
          "name": "",
          "type": "uint256"
        }
      ],
      "payable": false,
      "stateMutability": "view",
      "type": "function"
    },
    {
      "constant": true,
      "inputs": [
        {
          "name": "_walletAddr",
          "type": "address"
        }
      ],
      "name": "getTotalStuck",
      "outputs": [
        {
          "name": "",
          "type": "uint256"
        }
      ],
      "payable": false,
      "stateMutability": "view",
      "type": "function"
    }
  ],
  "bytecode": "0x60806040526127106000556000600160006101000a81548173ffffffffffffffffffffffffffffffffffffffff021916908373ffffffffffffffffffffffffffffffffffffffff16021790555034801561005857600080fd5b5061068e806100686000396000f300608060405260043610610061576000357c0100000000000000000000000000000000000000000000000000000000900463ffffffff1680624461ca146100665780631525bb471461011b5780638ad6e939146101af578063d60fdc50146101ef575b600080fd5b34801561007257600080fd5b5061009160048036038101908080359060200190929190505050610246565b604051808681526020018573ffffffffffffffffffffffffffffffffffffffff1673ffffffffffffffffffffffffffffffffffffffff1681526020018473ffffffffffffffffffffffffffffffffffffffff1673ffffffffffffffffffffffffffffffffffffffff1681526020018381526020018281526020019550505050505060405180910390f35b34801561012757600080fd5b5061016660048036038101908080359060200190929190803573ffffffffffffffffffffffffffffffffffffffff1690602001909291905050506102cb565b604051808373ffffffffffffffffffffffffffffffffffffffff1673ffffffffffffffffffffffffffffffffffffffff1681526020018281526020019250505060405180910390f35b6101ed600480360381019080803573ffffffffffffffffffffffffffffffffffffffff169060200190929190803590602001909291905050506103b5565b005b3480156101fb57600080fd5b50610230600480360381019080803573ffffffffffffffffffffffffffffffffffffffff169060200190929190505050610619565b6040518082815260200191505060405180910390f35b60048181548110151561025557fe5b90600052602060002090600502016000915090508060000154908060010160009054906101000a900473ffffffffffffffffffffffffffffffffffffffff16908060020160009054906101000a900473ffffffffffffffffffffffffffffffffffffffff16908060030154908060040154905085565b6000808273ffffffffffffffffffffffffffffffffffffffff166004858154811015156102f457fe5b906000526020600020906005020160010160009054906101000a900473ffffffffffffffffffffffffffffffffffffffff1673ffffffffffffffffffffffffffffffffffffffff1614156103ad5760048481548110151561035157fe5b906000526020600020906005020160010160009054906101000a900473ffffffffffffffffffffffffffffffffffffffff1660048581548110151561039257fe5b906000526020600020906005020160040154915091506103ae565b5b9250929050565b600080600360003373ffffffffffffffffffffffffffffffffffffffff1673ffffffffffffffffffffffffffffffffffffffff1681526020019081526020016000205414151561061457600460a0604051908101604052808481526020013373ffffffffffffffffffffffffffffffffffffffff1681526020018573ffffffffffffffffffffffffffffffffffffffff16815260200134815260200142815250908060018154018082558091505090600182039060005260206000209060050201600090919290919091506000820151816000015560208201518160010160006101000a81548173ffffffffffffffffffffffffffffffffffffffff021916908373ffffffffffffffffffffffffffffffffffffffff16021790555060408201518160020160006101000a81548173ffffffffffffffffffffffffffffffffffffffff021916908373ffffffffffffffffffffffffffffffffffffffff160217905550606082015181600301556080820151816004015550505081600360003373ffffffffffffffffffffffffffffffffffffffff1673ffffffffffffffffffffffffffffffffffffffff1681526020019081526020016000206000828254039250508190555081600360008573ffffffffffffffffffffffffffffffffffffffff1673ffffffffffffffffffffffffffffffffffffffff168152602001908152602001600020600082825401925050819055503490508273ffffffffffffffffffffffffffffffffffffffff166108fc829081150290604051600060405180830381858888f19350505050158015610612573d6000803e3d6000fd5b505b505050565b6000600360008373ffffffffffffffffffffffffffffffffffffffff1673ffffffffffffffffffffffffffffffffffffffff1681526020019081526020016000205490509190505600a165627a7a7230582055c4ee35c79abeadc768da4a60cd13c82e171146053422c5914b8801f101b1d20029",
  "source": "pragma solidity ^0.4.24;\n\n//token 초기값 이슈 아직X\n\ncontract GeneralMeeting {\n    uint companyToken = 10000; //회사-주주\n    address companyAddr = 0;\n    //address contractCaller; //거래호출;\n    address[] stockDataIndex;\n\n    mapping (address => uint) addressTotalToken;\n\n    struct stockData{\n        uint token; //from 주주 개개인의 거래한 주식수\n        address walletAddrFrom; //주주\n        address walletAddrTo; //주주\n        // uint transactionHash;   //tx.hash\n        uint tradingPrice;\n        uint timestamp;\n    }\n\n    stockData[] public stockDatas;\n\n    //stockData 추가 ==> 거래 =\n    function addStocks(address _walletAddrTo, uint _numTk) payable public { //token 연동\n        if(addressTotalToken[msg.sender] != 0){\n            stockDatas.push(stockData(_numTk, msg.sender, _walletAddrTo, msg.value, now));\n            addressTotalToken[msg.sender] -= _numTk;\n            addressTotalToken[_walletAddrTo] += _numTk;\n\n            uint balance;\n            balance = msg.value;\n            _walletAddrTo.transfer(balance);//양도자 즉 주식을 파는 사람의 eth가 늘어야 함. 즉 msg.sender\n            // _walletAddrTo.balance -= msg.value;\n        }\n    }\n\n    //거래 내역 리턴\n    function getProductStruct(uint _idx, address _walletAddr) public view returns (address, uint){\n        if(stockDatas[_idx].walletAddrFrom == _walletAddr){\n            return(stockDatas[_idx].walletAddrFrom, stockDatas[_idx].timestamp);\n        }\n    }\n\n    function getTotalStuck(address _walletAddr) public view returns (uint){\n        return addressTotalToken[_walletAddr];\n    }\n}\n",
  "sourcePath": "/Users/hyun/dev/Fito/fito.ga/contracts/GeneralMeeting.sol",
  "compiler": {
    "name": "solc",
    "version": "0.4.24+commit.e67f0147.Emscripten.clang"
  },
  "schemaVersion": "2.0.1",
  "updatedAt": "2018-11-13T00:54:04.641Z"
}